S019000068656C6C6F5F776F726C645F62617369632E737265630F
S31500000000501AFE1FCD28000049240000C928000010
S31500000010C9280000C9280000C92800000000000007
S31500000020000000000000000000000000C9280000D9
S31500000030C928000000000000C9280000C9280000E7
S31500000040FFFFFFFFFFFFFFFFFFFFFFFFFFFFFFFFBA
S31500000050FFFFFFFFFFFFFFFFFFFFFFFFFFFFFFFFAA
S31500000060FFFFFFFFFFFFFFFFFFFFFFFFFFFFFFFF9A
S31500000070FFFFFFFFFFFFFFFFFFFFFFFFFFFFFFFF8A
S31500000400FFFFFFFFFFFDFFFFFFFFFFFFFFFFFFFFF8
S31500000410FFFFFFFFFFFFFFFFFFFFFFFFFFFFFFFFE6
S31500000420FFFFFFFFFFFFFFFFFFFFFFFFFFFFFFFFD6
S31500000430FFFFFFFFFFFFFFFFFFFFFFFFFFFFFFFFC6
S31500000440FFFFFFFFFFFFFFFFFFFFFFFFFFFFFFFFB6
S31500000450FFFFFFFFFFFFFFFFFFFFFFFFFFFFFFFFA6
S31500000460FFFFFFFFFFFFFFFFFFFFFFFFFFFFFFFF96
S31500000470FFFFFFFFFFFFFFFFFFFFFFFFFFFFFFFF86
S31500000480FFFFFFFFFFFFFFFFFFFFFFFFFFFFFFFF76
S31500000490FFFFFFFFFFFFFFFFFFFFFFFFFFFFFFFF66
S315000004A0FFFFFFFFFFFFFFFFFFFFFFFFFFFFFFFF56
S315000004B0FFFFFFFFFFFFFFFFFFFFFFFFFFFFFFFF46
S315000004C0FFFFFFFFFFFFFFFFFFFFFFFFFFFFFFFF36
S315000004D0FFFFFFFFFFFFFFFFFFFFFFFFFFFFFFFF26
S315000004E0FFFFFFFFFFFFFFFFFFFFFFFFFFFFFFFF16
S315000004F0FFFFFFFFFFFFFFFFFFFFFFFFFFFFFFFF06
S3150000050020000000200001002F0000002F00010045
S315000005100C00010011000000300000003000010056
S31500000520240000002400010024000200240003002F
S31500000530240004002400050013000000170000003A
S315000005402300000021000000210001000700000038
S31500000550070001000700020007000300070004006F
S31500000560070005000700060007000700120000004C
S3150000057044000000080000000B00000041000000DD
S31500000580400000004000010004000000430000009D
S315000005902B0000002B000A002B000B002B000C0088
S315000005A02B000D002B0001002B0002002B00030086
S315000005B02B0004002B0005002B0006002B00070073
S315000005C02B0008002B0009000600000006000A00A8
S315000005D006000B0006000C0006000D0006000E00CB
S315000005E006000F00060001000600020006000300D8
S315000005F006000400060005000600060006000700C7
S31500000600060008000600090015000000150001009C
S3150000061015000200310000002A000000450000001D
S3150000062010000000030100000300000003000100A9
S315000006300F0000000D0000002D0000004200000029
S315000006402C0000002C0001002C0002002C000300EE
S31500000650320000002800000018000000140000000E
S31500000660140001001400020014000300140004002A
S31500000670140005001400060014000700140008000A
S3150000068014000900340000003400010016000000C8
S31500000690160001003500000036000000360001009B
S315000006A02200000033000000330100002900000092
S315000006B010B5054C237833B9044B13B10448AFF396
S315000006C000800123237010BD2401FE1F00000000DE
S315000006D0D851000008B5034B1BB103490348AFF3DB
S315000006E0008008BD000000002801FE1FD851000050
S315000006F00B4B10B41C68B4EB102F03D803205DF825
S31500000700044B704749B15B685DF8044B020A52011D
S3150000071004330020D3580B8070470120EFE700BF59
S31500000720E000FE1FD2B10E4B10B41C68B4EB102FC4
S315000007304FEA102C03D803205DF8044B70475B6822
S315000007405DF8044B22EA01004FEA4C1C08330A40CC
S3150000075042EA00424CF8032000207047032070470D
S31500000760E000FE1F12B3124B10B41C68B4EB102F3E
S315000007704FEA102C03D803205DF8044B70475C68E1
S315000007804FEA4C1C02EA010354F80C00034361EAE9
S3150000079002019AB2114054F80C20120C12041143B3
S315000007A044F80C1000205DF8044B70470320704796
S315000007B0E000FE1F0B4B10B41C68B4EB102F03D8DF
S315000007C003205DF8044B704751B15B685DF8044B3C
S315000007D0020A520104330020D3581B0C0B807047C9
S315000007E00120EEE7E000FE1F10B40D4C2368B3EBCA
S315000007F0102F03D803205DF8044B7047002AF9D068
S3150000080063685DF8044B4FEA102C083322EA0100B6
S3150000081003EB4C130A4042EA00425A60002070473C
S31500000820E000FE1F20B14FF0022303600020704756
S315000008300120704738B50488002C4DD0436800214C
S31500000840043303EBC40040F202450C4640F2034C6D
S3150000085040F2044E0FE0624530D153F8042C02F00A
S31500000860B852B2F1807F14BF41F0020144F0020495
S315000008700833834211D01A88AA42ECD153F8042CCB
S3150000088002F0B852B2F1807F03F1080314BF41F0C1
S31500000890010144F001048342EDD1C943CDB20120E8
S315000008A001F0C2FF0D4B93F8BB2414432C4083F890
S315000008B0BB440120BDE8384001F086BF7245D7D160
S315000008C053F8042C02F0B852B2F1807F0CBF44F00A
S315000008D0040441F00401CBE7FF25E0E700E0014016
S315000008E0012958D82E4B1A68B2EB102F70B44FEA74
S315000008F0102409D99A68C0B252F8245000F11006A3
S315000009000122B2402A4202D1032070BC704700EB9C
S315000009100410D3E9035454F8203000293DD043F0A5
S315000009200401204E0E40EFF3108C012383F3108850
S315000009301D4B1A8892B212B9EA704022EA701A88E0
S31500000940013292B21A808CF3108811F4803F54F869
S31500000950202007D022F4803244F82020134A0A408F
S3150000096044F8202044F82060EFF31081012282F33E
S3150000097010881A8892B21AB11A88013A92B21A806D
S315000009801B889BB213B98022EB70EA7081F3108842
S31500000990002070BC70470320704723F00401C0E7B5
S315000009A0E000FE1FD5FC011F4001FE1FD5FC001F05
S315000009B070B582B00446002501A80E468DF8045095
S315000009C001F024FD9DF80430DB0713D5202C0ED84A
S315000009D0012E0CD8094BDB681A780CBF22EA0404F6
S315000009E01443284604F030041C7002B070BD032086
S315000009F002B070BD062002B070BD00BFE000FE1F51
S31500000A00002861D043682DE9F0470646002B58D0F0
S31500000A10FFF710FF3388002B50D02C4F2C4A4FF095
S31500000A20000C4FF0010E4FF0400A4FF0800971683C
S31500000A30F8681FFA8CF401EBC40351F834509B8814
S31500000A403C69190ADBB203EB0113EFF310888EF34E
S31500000A501088118889B211B9C17080F803A0118875
S31500000A60013189B2118088F3108815F4803F54F85B
S31500000A70231007D021F4803144F8231025F4803167
S31500000A8044F8231044F82350EFF310818EF31088B6
S31500000A9013889BB21BB11388013B9BB2138013884A
S31500000AA09BB213B9C37080F8039081F31088318824
S31500000AB00CF1010C1FFA8CF39942B8D80020BDE85E
S31500000AC0F0870120BDE8F08701207047E000FE1F97
S31500000AD04001FE1F00282ED070B5436886B004463C
S31500000AE0002B2AD01649174DCE6809220023019201
S31500000AF0CDE90233CDE9043302A901A8B0470A23A0
S31500000B008DF80430029B6B60059BAB6002A9BDF8B3
S31500000B100C302B6001A8B047012302A98DF80530DF
S31500000B2001A8029B2B61B047029BEB602046FFF7B2
S31500000B3067FF06B070BD01207047012006B070BD8A
S31500000B40404C0000E000FE1F30B4124C2268B2EBAD
S31500000B50102F0CD9A268030AC0B252F8235000F134
S31500000B60100C012202FA0CFC1CEA050F02D103202C
S31500000B7030BC704751B1226900EB031330BC52F808
S31500000B802330C3F3400300200B707047104630BC7F
S31500000B90704700BFE000FE1F30B4154C2368B3EB6E
S31500000BA0102F0CD9A368020AC0B253F8225000F1E4
S31500000BB0100C012303FA0CFC1CEA050F02D10320DA
S31500000BC030BC704789B164685201043403FA00F0FE
S31500000BD0145982B200EA1440824214BF0020002059
S31500000BE030BC0CBF0B7008707047184630BC70479D
S31500000BF0E000FE1F174A10B51468B4EB102F0DD98C
S31500000C00030A9468C0B254F8234000F1100C4FF068
S31500000C10010E0EFA0CFC1CEA040F01D1032010BDD4
S31500000C207145FBD852680CD0083202EB43130EFA1A
S31500000C3000F0596841EA0041090C09045960002096
S31500000C4010BD083202EB431381405868014389B254
S31500000C50F4E700BFE000FE1F012921D830B4124C92
S31500000C602368B3EB102F4FEA10220BD9A368C0B24A
S31500000C7053F8225000F1100C012303FA0CFC1CEA75
S31500000C80050F02D1032030BC704703FA00F049B1CA
S31500000C9083B2616852010831002030BC535070475E
S31500000CA0032070470304F4E7E000FE1F2DE9F0413E
S31500000CB02E4D2B68B3EB102F84B00CD9AB68060A07
S31500000CC0C7B253F8263007F110024FF0010808FAB0
S31500000CD002F21A4203D1032004B0BDE8F08102AB50
S31500000CE0ADF80C0068460C4602910193ADF8008001
S31500000CF0FFF7A0FDD5E9035107EB0613EFF31086C6
S31500000D0088F310881A48028892B212B9EA70402213
S31500000D10EA700288013292B2028086F31088E603F6
S31500000D2051F8232007D522F4803241F8232024F4F9
S31500000D30803241F8232041F82340EFF3108201234B
S31500000D4083F3108803889BB21BB10388013B9BB2D7
S31500000D50038003889BB213B98021EB70E97082F39C
S31500000D601088002004B0BDE8F08100BFE000FE1F3F
S31500000D704001FE1F034B04301B6823F8201000209F
S31500000D80704700BF4401FE1F034B1A68031D002075
S31500000D9022F82300704700BF4401FE1F034B1A6868
S31500000DA0137843F080030020137070474401FE1F40
S31500000DB0034B1A6813786FF3C7130020137070473C
S31500000DC04401FE1F20B14FF002230360002070474C
S31500000DD00120704770B586B0002830D01A4A00232B
S31500000DE00B21CDE90113CDE90333D26805930446FF
S31500000DF002A901A89047054610B1284606B070BD65
S31500000E00124E029B336001A801F002FC62685AB1DF
S31500000E10A368306803EB820C598813F8042B04325C
S31500000E209C4520F82210F7D12378002BE5D03268B4
S31500000E301378284643F08003137006B070BD012571
S31500000E40284606B070BD00BF404C00004401FE1F9E
S31500000E5060B1012808D1094B1B68002040214122BE
S31500000E60187119711A71704701207047034B1B687E
S31500000E7040214122987099709A7070474401FE1F74
S31500000E80062070470620704720B14FF0022303600A
S31500000E90002070470120704732490B6893F82820DC
S31500000EA002F03003102B0CD0202B02D000238B61D4
S31500000EB0704790F82B302C4A9B0932F813305BB9F7
S31500000EC07047038D10B403F00303284C34F8133035
S31500000ED003BB5DF8044B704707EE903AB8EE677AAD
S31500000EE0D1ED047A90F82B30F8EE676A03F01F0311
S31500000EF0C6EE877A07EE103AB8EE477AF7EE006A42
S31500000F0037EE267A67EE877AFCEEE77A17EE903AA6
S31500000F108B617047520622D5028D12F0100F0CBF5E
S31500000F200322002201EB820207EE903AD2ED016A1B
S31500000F30038D5DF8044BF8EE677AF8EE666AC3F344
S31500000F40052386EEA77A013307EE903AFAEEEF7A9A
S31500000F5067EE277AFCEEE77AC1ED067A7047032240
S31500000F60E0E700BFF400FE1F74470000844700005E
S31500000F7051B3062810B429D005280AD004282DD04C
S31500000F80D8B1012842D0022838D003282ED0032019
S31500000F9010E0224C0023E0690B60026AC2F3027281
S31500000FA090F8263003F0070304EB830300205B6808
S31500000FB0D3400B605DF8044B7047184C0860E0693D
S31500000FC0026AC2F30232EBE701207047134C00239A
S31500000FD0E0690B60026AC2F30262E1E70F4C00238C
S31500000FE0E0690B60026AC2F30242D9E70B4C0023A8
S31500000FF0E0690B60026A02F00702D1E7074C0023A2
S31500001000E0690B60026AC2F30212C9E7034C0023CF
S31500001010E0690B60026AC2F30222C1E7F400FE1F18
S3150000102038B5084BDD690446002001F0FDFB95F854
S31500001030303064F30003002085F8303001F0C4FB43
S31500001040002038BDF400FE1F084B10B5DC690020F7
S3150000105001F0EAFB94F8523043F00103002084F8D3
S31500001060523001F0B1FB002010BD00BFF400FE1F9E
S31500001070084B10B5DC69002001F0D6FB94F852301D
S315000010806FF30003002084F8523001F09DFB00202E
S3150000109010BD00BFF400FE1F084B10B5DC69002030
S315000010A001F0C2FB94F83E3043F08003002084F840
S315000010B03E3001F089FB002010BD00BFF400FE1F8A
S315000010C0084B10B5DC69002001F0AEFB94F83E3009
S315000010D06FF3C713002084F83E3001F075FB002043
S315000010E010BD00BFF400FE1F084B10B5DC690020E0
S315000010F001F09AFB94F8533043F00103002084F882
S31500001100533001F061FB002010BD00BFF400FE1F4C
S31500001110084B10B5DC69002001F086FB94F85330CB
S315000011206FF30003002084F8533001F04DFB0020DC
S3150000113010BD00BFF400FE1F38B5084BDD6904463C
S31500001140002001F071FB95F8243064F306130020AB
S3150000115085F8243001F038FB002038BDF400FE1F6E
S3150000116030B583B0CDE90001002837D001F09CF8F6
S3150000117007EE900AF8EE677AB7EE007AC7EE276AAE
S315000011804FF0E022174C15690020DDED017A9DED48
S31500001190007A1061F8EE677AB8EE477A66EEA76ACB
S315000011A094F82330C7EE267AD9B2FCEEE77A17EE2A
S315000011B0903A013BB3F1807F0CD25361F02384F85F
S315000011C0233001F0F00107239061136184F82310A6
S315000011D003B030BD1220156103B030BD032003B04B
S315000011E030BD00BF00ED00E0052827D0144B0428D1
S315000011F070B5DD6904460E4606D195F88034DB07E6
S3150000120002D54FF4C87070BD002001F00DFB95F8B3
S315000012103E306FF3C71385F83E3095F83E3066F3DF
S31500001220061385F83E3095F83E3064F3020300203D
S3150000123085F83E3001F0C8FA002070BD03207047E3
S31500001240F400FE1F38B5002402F0070261F30E34E5
S315000012509DF810C09DF8141062F30A2463F3061477
S315000012600E4B6CF302041B6861F312449DF81810D0
S3150000127093F82A3061F31E749DF81C10054661F33D
S315000012801A645B0748BF62F31244002001F0CCFAEF
S315000012902C620020BDE8384001F096BAF400FE1F2B
S315000012A010B5174BDC6994F84120D00706D494F8A2
S315000012B04130DB074FF0000010D410BD1A6894F8D7
S315000012C0263092F82820510603F0070313D4052B85
S315000012D001D0032BEBD140F2971010BD01F0A4FA18
S315000012E094F841306FF30003002084F8413001F098
S315000012F06BFA002010BD228DD206EAD4E7E700BFC4
S31500001300F400FE1F0620704706207047062070472F
S3150000131006207047024630B329B3144BDB6993F8B5
S3150000132026C0CCF3020C82F800C01A6AC2F302325D
S315000013300A701A6AC2F302224A701A6AC2F30212C9
S315000013408A701A6AC2F30202CA701A6AC2F30242A9
S315000013500A711A6AC2F302724A711B6AC3F3026304
S3150000136000208B7170470120704700BFF400FE1FFC
S315000013702DE9F84300295AD0002874D03D4DEB6979
S3150000138093F8AA4014F001046DD193F8A020196ACD
S315000013901C6A1F6A2E68C7F3021C1F6A07F0070E35
S315000013A01F6AD3F820901B6AC3F30268B36802F081
S315000013B00302C1F30231C4F30224C7F30247C9F39F
S315000013C0027953B3032A28D133698B422DD8A3421D
S315000013D02BD8634529D8734527D84B4525D8BB421A
S315000013E023D8434521D80146012001F025F8EC69B0
S315000013F0002001F019FA94F8403043F0800384F895
S31500001400403094F8403043F00103002084F8403027
S3150000141001F0DAF90020BDE8F883F368002BE2D08A
S31500001420022AE0D173698B42D1D90520F3E7114B2B
S31500001430DD6995F84130DB0718D408460C4601F003
S31500001440F3F995F8403064F3000385F8403095F8D9
S31500001450403064F3C713204685F8403001F0B4F9F4
S315000014602046BDE8F8830120BDE8F8834FF4CB7031
S31500001470BDE8F883F400FE1F70B5434D88B02846DA
S3150000148000F0CCFF414A00230321CDE90433CDE926
S3150000149006330191D26804A901A89047049CEC6127
S315000014A04FF6FF73029394F83630DE0754D50020CA
S315000014B001F0BAF994F8A530062262F3020384F823
S315000014C0A530002001F080F92B68EC69D3E90623EA
S315000014D02B612F4BAB6000204FF400434FF6FF7695
S315000014E06A60A861EB606B61029601F09DF994F861
S315000014F0803443F0010384F88034002001F064F95D
S31500001500EC69039694F88034D80714D5039BFBB195
S315000015102B68226A93F8225094F82630002001F0B6
S3150000152083F994F88034DB0727D4002001F04CF9C6
S31500001530002008B070BD039B002BE7D0039B013B46
S31500001540039394F88034DA07F5D5039B002BDFD19B
S315000015504FF4CD7008B070BD94F83C30D90708D46C
S31500001560029B33B1029B013B029394F83C30D907AE
S31500001570F6D5029B002B9AD1EAE794F8813423EA48
S31500001580050384F88134D0E7F400FE1F404C0000C8
S3150000159000127A0005292ED8DFE801F00A11181F7B
S315000015A0260390F82A0000F0010080F00100704741
S315000015B090F8360000F0010080F00100704790F8C6
S315000015C0380000F0010080F00100704790F89004A8
S315000015D000F0010080F00100704790F8320000F042
S315000015E0010080F00100704790F8800400F00100CF
S315000015F080F0010070470020704700BF052867D8BB
S3150000160070B5554D0446E86990F8263003F0070397
S315000016109C4282B020D0052B11D090F82A30DB07EF
S315000016200DD5012C1CD190F84030DB0978D121462C
S31500001630FFF7B0FF002866D1002002B070BD2B680E
S3150000164093F828305E0669D5038D13F0100F0CBF92
S31500001650032300239C42E4D140F2911002B070BDF6
S315000016602146FFF797FF0028E6D0032CEE693CD011
S31500001670052C07D196F83C309B0654D440F29310C3
S3150000168002B070BD34BB96F83C30D907F6D520467B
S3150000169001F0CAF896F8363043F0010386F8363082
S315000016A0002001F091F84FF6FF73019304E0019BCF
S315000016B043B1019B013B0193E8692146FFF76AFFAD
S315000016C00028F4D1019B002BB6D14FF4CD70B4E7BE
S315000016D003207047002001F0A7F8631E042BDFD813
S315000016E0DFE803F015320A2B240096F83C301A077F
S315000016F0C4D5002001F098F896F8323043F0010383
S3150000170086F83230CCE70020EE6901F08DF896F8C5
S31500001710383043F0010386F83830C1E7032399E7F0
S3150000172040F2951089E7002001F07EF896F82A30FD
S3150000173043F0010386F82A30B2E796F8803443F086
S31500001740010386F88034ABE796F8903443F0010342
S3150000175086F89034A4E700BFF400FE1F05281DD8C4
S3150000176008B5431E012B014608D9042806D068B1E6
S31500001770032815D005281FD0002008BD194BD869AD
S31500001780FFF708FF38B140F2911008BD154AD0693D
S31500001790FFF700FFF0B94FF4C87008BD032070478B
S315000017A0104AD069FFF7F6FE0028F4D0D36993F803
S315000017B03C301B070BD512E00A4AD069FFF7EAFE58
S315000017C00028E8D0D36993F83C30990607D440F254
S315000017D0931008BDD36993F83C30DA07F7D54FF478
S315000017E0C97008BDF400FE1F30B583B04FF6FF7315
S315000017F00446012001930D4601F016F800230DF171
S3150000180003008DF8033000F0C9FC94F8AA30D8061E
S3150000181005D494F8A030D906C3F300120AD5019B6B
S31500001820013B0193019B002BEFD1012000F0CCFF7F
S3150000183003B030BD94F8AA304FF6FF7162F300038F
S3150000184084F8AA30019102E0019B013B019394F8D0
S31500001850AA30DA0603D494F8A030DB0602D5019B41
S31500001860002BF1D194F8A030042D0CBF43F00303F4
S3150000187065F3010384F8A0304FF6FF73019302E08D
S31500001880019B013B019394F8AA30D80603D494F83F
S31500001890A030D90602D5019B002BF1D194F8AA30CD
S315000018A0042D0CBF43F001036FF3000384F8AA3044
S315000018B04FF6FF73019302E0019B013B019394F8FD
S315000018C0AA30DA0603D494F8A030DB0602D5019BD1
S315000018D0002BF1D19DF8030000F074FC012000F00C
S315000018E073FF03B030BD00BF0428124B0ED0022890
S315000018F00CD01A6892688A4207D3D86990F82A30C1
S31500001900DB0702D50321FFF76FBF7047D86990F850
S315000019102A20D207EDD590F83220D207E9D590F8E3
S315000019203620D207E5D590F83820D207E1D5042134
S31500001930FFF75ABFF400FE1F2DE9F041052888B0D5
S315000019402BD80C46002900F0AC800B788A7993429C
S3150000195023D34978994220D3E17899421DD86379F7
S3150000196093421AD32179914217D30428074619D0F6
S31500001970664EF06990F8263003F007039F4228D0A0
S31500001980002F00F0BA80032F40F0AC8090F83C3076
S315000019901A071ED440F2931500E00325284608B026
S315000019A0BDE8F081134340F0A680584EF06990F8E8
S315000019B04030DB0940F09F8090F8263003F00703A3
S315000019C0042B06D03946FFF7E5FD002800F09B8082
S315000019D0F069036A036A036A036A036A036A036AAD
S315000019E00021C3F30268FFF7FFFE00238DF81030D5
S315000019F08DF81C3006EB8703A2795B68D34005930C
S31500001A00F3691A6A93F8263003F0070306EB83039B
S31500001A10C2F302625B6804A8D340069300F054FC4C
S31500001A2005460028BAD1A37998453FD20393637936
S31500001A30029323790193E3780093A378627821785F
S31500001A40F069FFF7FFFBF469284600F0EDFE94F815
S31500001A50263067F30203284684F8263000F0B4FEE9
S31500001A60F3691A6A93F8263003F0070306EB830638
S31500001A70C2F3026273680121D34004A88DF81010E6
S31500001A80069300F021FC0546002887D100F00CFCE7
S31500001A901F4B01461860002835D03846FFF724FF53
S31500001AA07CE70125284608B0BDE8F081D6F81C8001
S31500001AB000F0BAFE98F8263067F30203284688F845
S31500001AC0263000F081FEA37903936379029323798C
S31500001AD00193E3780093A37862782178F069FFF7A1
S31500001AE0B1FBBDE7052F7FF46DAF90F83C309B0648
S31500001AF03FF56FAF4EE7052550E790F83C30D90724
S31500001B003FF567AF46E74FF4C87547E7F400FE1F99
S31500001B109401FE1F2DE9F0432DED028B042883B0BE
S31500001B20044668D0012800F0498120BBB74DEE6914
S31500001B3096F83C30DB0700F1538196F8AA30DF07B0
S31500001B4000F1558196F8A030002000F06DFE96F861
S31500001B5036306FF3000386F83630002000F034FE8E
S31500001B604FF6FF73EA690193052C1BD8DFE804F0F2
S31500001B70343E392F2016032800F0CE8005285BD08E
S31500001B80A24D0020EE6900F04FFEA31E032BE4D801
S31500001B90DFE813F00D0106014400BB0092F82A307D
S31500001BA0DB0709D5019B3BB1019B013B0193DBE7B9
S31500001BB092F88034D907F5D4019B002B14BF00207E
S31500001BC04FF4CD7003B0BDEC028BBDE8F08392F804
S31500001BD03230DD07E6D4EFE792F83630DB07E1D4A2
S31500001BE0EAE792F89034DE07DCD4E5E792F838307D
S31500001BF0DF07D7D4E0E7854D2B68EE6993F82270AE
S31500001C00002000F011FE96F88034D9070DD400208C
S31500001C1000F0DAFD0020EE6900F006FE96F880344A
S31500001C206FF3000386F8803497E796F8813423EA49
S31500001C30070386F88134EAE70E46002900F0EE80B5
S31500001C40724D72782B6893F824109142C0F0DB80B5
S31500001C5093F8262096ED017A07EE902AF8EE677A39
S31500001C60F4EEC77AF1EE10FA00F1CD8093F8253044
S31500001C7007EE903AF8EE677AB4EEE77AF1EE10FAEC
S31500001C8000F1C1803178032902D0002940F0BB80E1
S31500001C90E869FFF77FFC002800F0C280EF6997F83B
S31500001CA03C30990600F19C8097F8AA30DA0700F1DB
S31500001CB0BA8097F8A03096F80080002000F0B4FDB6
S31500001CC03B8DB8F1030F0CBF6FF3041343F0100301
S31500001CD03B85002000F078FD2B68EF6993F82830EB
S31500001CE096F8018003F03003102B00F0D080202BF3
S31500001CF000F09F803846FFF7CFF8E8690021FFF72C
S31500001D0073FD0020EE6900F08FFD96F82A306FF320
S31500001D10000386F82A3020E73C4DEF6997F83C30FF
S31500001D201E075DD497F8AA30D80771D497F8A0306B
S31500001D302B68002093F8276093F8208093F8219071
S31500001D4000F072FD97F8133406FA09F25BB25A40B6
S31500001D5002EA08025340DBB287F81334002000F091
S31500001D6033FDEE69002000F05FFD96F813346FF343
S31500001D70861386F81334002000F026FDEE69002055
S31500001D8000F052FD96F8A230052262F3030386F8AE
S31500001D90A230002000F018FD0020EE6900F044FD9E
S31500001DA096F832306FF3000386F83230D5E696F8AF
S31500001DB090346FF3000386F89034CEE6134DEE6947
S31500001DC096F8AA30DA0718D496F8A030002000F06A
S31500001DD02BFD96F838306FF3000386F83830BCE6F2
S31500001DE040F2931003B0BDEC028BBDE8F0833046A1
S31500001DF00321FFF7F9FCEE69A6E630460321FFF75B
S31500001E00F3FCEE69E2E70320DCE600BFF400FE1F08
S31500001E1038462146FFF7E8FCEF6989E70120D1E65D
S31500001E204FF4CA70CEE638460321FFF7DDFCEF69B2
S31500001E3041E72F4B002033F8188000F0F5FC97F8A7
S31500001E402B3068F3871387F82B30002000F0BCFC9A
S31500001E502B68EF6993F8283096ED018A03F030037A
S31500001E60102B2ED0202B10D1002000F0DDFCFCEE34
S31500001E70C87A97F82B2017EE903A013B63F30402D9
S31500001E8087F82B20002000F09FFCEF6932E7194B02
S31500001E90002033F8189000F0C7FC3B8D69F301036E
S31500001EA03B85002000F090FC2B6893F8283003F067
S31500001EB03003202BBDD0102BEF697FF41BAF96EDBE
S31500001EC0018A002000F0B0FC78EE087A3A8DFCEE2C
S31500001ED0E77A002017EE903A013B63F30D223A852C
S31500001EE000F072FC2B6893F8283003F03003B9E752
S31500001EF06C4700007C47000005280AD8194A08B537
S31500001F00431ED269042B27D8DFE803F00D21171CE6
S31500001F1005000320704792F82A30DB0707D5BDE895
S31500001F200840FFF7F7BD92F83830DB07F7D41046C4
S31500001F30FEF7B2FF40F2911008BD92F83230DB078F
S31500001F40EDD4F4E792F88034DB07E8D4EFE792F8B3
S31500001F509034DB07E3D4EAE792F83630DB07DED4C9
S31500001F60E5E700BFF400FE1F2DE9F04383B001282A
S31500001F7001910C461CD0022803D0002003B0BDE816
S31500001F80F0830529164619D0DFF8A080D8F81C0082
S31500001F902146FFF7FFFA00283DD1311D2046FFF705
S31500001FA0B9FD0028E9D040F291139842E5D0E5E763
S31500001FB0084603B0BDE8F043FFF720BB1279052AB7
S31500001FC027D8DFF868801146D8F81C00FFF7E2FA38
S31500001FD030BB31461046FFF79DFDA8B996F8049030
S31500001FE04FF6FE7540F2931701E0013DC6D0484614
S31500001FF0FFF7B4FBB842F8D00028C7D06FF4C87317
S31500002000C318012BC2D9B9E740F291139842E5D023
S31500002010B4E70320B2E7D8F81C00FEF73DFFACE7B3
S31500002020D8F81C00FEF738FFD8E700BFF400FE1F03
S315000020302DE9F04782B0002854D0DFF85C8106789D
S31500002040D8F81C3090F815A093F826701A6A1A6A08
S315000020501A6A1A6A1A6A1A6A1B6AC37C8DF80230EF
S31500002060037D8DF80130C37D8DF803308146837D75
S31500002070007E8DF800A0052E07F007078DF80430C6
S315000020808DF8050029D806F108036B4413F8083CBF
S31500002090012B22D0022809D199F80430052B1CD82F
S315000020A008336B4413F8083C012B16D04A46052129
S315000020B0FFF75AFF0446002849D140F29115E1B2D4
S315000020C04A4650460134FFF74FFF08B1A84249D1AE
S315000020D0052C0CD01DF804A0F1E70324204602B01D
S315000020E0BDE8F0870124204602B0BDE8F0874FF630
S315000020F0FE7540F2931A01E0013DEFD03046FFF73E
S315000021002DFB50450446F7D020B16FF4C87543192E
S31500002110012BE3D8042E27D0002509F10C01304607
S31500002120FFF70AFC04460028D8D1BE4206D007F1C4
S3150000213008036B4413F8083C012B0ED0002DCDD0BC
S3150000214000F0B2F801463046FFF7CEFBC6E740F294
S3150000215091139842C2D10024AFE73846FFF74EFAF2
S315000021600028EBD00446B9E7D8F81C3093F82A20AB
S31500002170D0070ED593F83220D1070AD593F836202A
S31500002180D20706D593F8385005F0010585F001050C
S31500002190C3E70125C1E700BFF400FE1F034668B18F
S315000021A0074AB2F80011C1F30001197092F8003124
S315000021B06FF30003002082F800317047012070475A
S315000021C000C00140104991F8043143F0010381F841
S315000021D00431B1F804318446D8070AD54FF0FF33ED
S315000021E000E07BB1B1F80421D20703F1FF33F8D444
S315000021F043B1054A92F800316CF30003002082F8DF
S31500002200003170471420704700C0014070B5244D5E
S3150000221082B02B6898470120FFF7D4FFAE680021F3
S315000022200320B0471F4AEC69019240F20313ADF850
S3150000223000300320A047B0F5C97FFAD169460520D2
S31500002240B04728B140F29113984201D000BEEC6924
S315000022500520A047B0F5C97FFAD10123022200214B
S315000022608DF806102C698DF800308DF801208DF858
S3150000227002208DF803308DF805208DF8043069466C
S315000022800520A04700B100BE2B6E04209847AB6A1C
S3150000229001209847EB6A9847AB6D984702B070BD2E
S315000022A0004700000000A04100B5064B83B00022A5
S315000022B09B69019201A906209847019803B05DF831
S315000022C004FB00BF004700000378D3B1012B01D007
S315000022D0002070478368474A017B934254D9464A97
S315000022E0934266D9454A92F81C3103F00703994296
S315000022F0EED092F81C3161F3020382F81C31002003
S31500002300704742683B498A4235D93D4B4FF0F10C44
S3150000231010B483F804C0197A374C41F004011972DD
S31500002320197A41F008011972197A41F001011972FE
S31500002330197A41F002011972A2424FF0F0011971A7
S3150000234041D983F804C01A7A42F010021A72197140
S3150000235002230373294991F81C2102F007029A42CD
S3150000236005D291F81C2163F3020281F81C2100209A
S315000023705DF8044B704723498A422AD81F4A0373E3
S3150000238092F81C31002070471D4BF1221A711A7AFF
S315000023906FF382021A721A7A6FF3C3021A721A7AEA
S315000023A06FF300021A721A7AF0206FF341021A7262
S315000023B01871134BF1221A711A7AF0206FF3041276
S315000023C01A7218718EE7104B9A42C1D80123037313
S315000023D0C0E701230949037391F81C2102F00702A3
S315000023E09A42BFF475AF91F81C2163F3020281F89B
S315000023F01C216DE7000E270700C2EB0B00C0014051
S315000024000020004000B4C40400688909037823F062
S31500002410030343F003030370704700BF014B0360DF
S31500002420704700BF8C47000002483022002100F0B0
S31500002430F9BD00BF4801FE1F024B43F820100020E3
S31500002440704700BF4801FE1F08B56F4BB3F8403117
S31500002450D80700F1CB806C4BB3F84031990700F1F7
S31500002460B880694BB3F840315A0700F1A580664B36
S31500002470B3F840311B0700F19280634BB3F840314B
S31500002480D8067FD4604BB3F840315906C3F38010A9
S315000024906CD45D4BB3F840311A065AD45A4BB3F894
S315000024A04031DB0548D4584BB3F84031980536D453
S315000024B0554BB3F84031590524D4534BB3F840314A
S315000024C01A0512D4504BB3F84031DB0400D408BDD2
S315000024D04E4BDB6A0BB10B2098474B4AB2F83031B2
S315000024E043F48053A2F8303108BD484B9B6A0BB1C8
S315000024F00A209847444AB2F8303143F40063A2F800
S315000025003031DFE7414B5B6A0BB1092098473E4A01
S31500002510B2F8303143F48063A2F83031CDE73B4B5B
S315000025201B6A0BB108209847374AB2F8303143F49A
S315000025300073A2F83031BBE7344BDB690BB10720DF
S315000025409847314AB2F8303143F48073A2F83031FB
S31500002550A9E72E4B1B680BB1002098472A4AB2F810
S31500002560303143F08003A2F8303197E7274B5B68A0
S3150000257003B19847244AB2F8303143F04003A2F839
S31500002580303186E7214B9B690BB1062098471E4ADE
S31500002590B2F8303143F01003A2F8303172E71B4B2A
S315000025A05B690BB105209847174AB2F8303143F002
S315000025B00803A2F8303160E7144B1B690BB1042005
S315000025C09847114AB2F8303143F00403A2F830318B
S315000025D04DE70E4B9B680BB1022098470A4AB2F8AA
S315000025E0303143F00203A2F830313AE7074BDB689B
S315000025F00BB103209847044AB2F8303143F0010387
S31500002600A2F8303127E700BF006000404801FE1FF6
S315000026100278452A30D81E4B9B5CFF2B35D010B56F
S31500002620B0F802C090F801E0980603F01F0115D437
S31500002630F444A1EB0C01012088409B09154A52F88D
S315000026402320EFF31081012383F31088136823EA14
S315000026500003136081F31088002010BD01242B2A8B
S3150000266004FA01F00AD0332AE7D1BEF1010F04BF04
S3150000267001310EFA01F0E0E701207047BCF1070FC7
S31500002680DBD9013104FA01F0D7E70320704700BF18
S31500002690B847000000480000034640B1064A92E8E9
S315000026A003004FF0000C83E80300604670474FF0CC
S315000026B0010C6046704700BF28480000A0F10100E9
S315000026C00028FBD1704700BF10B501FB00F4FFF7EF
S315000026D0EBFD4FF47A72A4FB02CE4FF0FF331149A3
S315000026E0B1FBF0F063454FF0000171EB0E0E07D31E
S315000026F0BCFBF0F0800878B1BDE81040FFF7DEBF04
S315000027008000B4FBF0F4A4FB0242A34271EB020288
S3150000271003D320460028EFD110BDBDE8104018466F
S31500002720FFF7CCBF00CA9A3B0B4A0C4B10B49B1A5E
S315000027300B4CDB08236063B10A4800219388C3F37E
S31500002740090340F8043B236801318B4202F1080279
S31500002750F4D85DF8044B7047000500000005000042
S315000027607801FE1F00630040F0B5114D114C12496F
S31500002770124A134B134E0E60641BA40815601C60AE
S3150000278084B105EB840EAC4600275CF8040B2A46A0
S31500002790002352F8041B884205D001339C42F8D12D
S315000027A0F445F2D1F0BDF445F754EED1FAE700BF97
S315000027B000050000B00600008401FE1F8001FE1F18
S315000027C07C01FE1F7400FE1FEFF31081012383F3CB
S315000027D01088124B33F8102092B22AB133F8102029
S315000027E0013A92B223F8102033F810309BB293B915
S315000027F00B4A10B4B2F8FE330A4C9BB234F8100000
S3150000280043F4254323EA0003A2F8FE3381F310883C
S315000028105DF8044B704781F3108870478801FE1FEE
S3150000282000E001401448000030B4EFF310810123AA
S3150000283083F310880E4A32F810309BB26BB90D4CF8
S315000028400D4DB4F8FE3335F810C09BB243EA0C03C5
S3150000285043F425439BB2A4F8FE3332F8103001331B
S315000028609BB222F8103081F3108830BC704700BF4D
S315000028708801FE1F00E0014014480000024B0022C0
S315000028801A805A809A8070478801FE1F0B4A08B545
S315000028900346106840B10333094923F00303034498
S315000028A08B4204D8136008BD06481060F3E700F0B9
S315000028B0A5FB0C2303604FF0FF3008BD9001FE1FFF
S315000028C05012FE1F5002FE1F00BE704708B500F0F2
S315000028D005F800F079F9FEE7704700BF414AF8B500
S315000028E0D2F8883043F47003C2F8883000200446DA
S315000028F0FFF7F2FFFFF798FD3B4B1B689847FFF782
S31500002900BDFFFFF783FC394A394B148039481B68F1
S315000029109847394A3948121A02D0214600F082FBFC
S31500002920374A3848121A02D0374900F06DFB374B48
S3150000293037493848384A00244FF425459C801D8085
S315000029409860DA60B1F8202192B2012542F48052F3
S31500002950A1F820219D80FFF7A7FC304B02462846B0
S315000029601A602F4DFFF7B8FF2E4B5B1BA3424FEAB1
S31500002970A30605DD55F8043B01349847A642F9DC69
S31500002980FFF7F2FEFFF7D0FE274B284C1B682848BE
S31500002990284D9847D4E90001D4E90023584000F0B7
S315000029A049FBD4E900232449561845EB0307C4E93B
S315000029B00067D4E9006786F01E4287F07D4382F403
S315000029C0120283F42D0382F4384283F4A44383F085
S315000029D02B0382F03702C4E900230020BDE8F8404B
S315000029E000F02CB800ED00E0404C00004001FE1F56
S315000029F0A8460000404800005002FE1F2401FE1FAA
S31500002A00E000FE1F0000FE1FDC510000000D00402C
S31500002A10006000405012FE1F4F1AFE1F9401FE1F59
S31500002A206C00FE1F7000FE1FE44600001801FE1F2A
S31500002A301C480000E34FE6F41654E7A100F02CB85A
S31500002A4082B04FF0C8429369D907FCD400210091A7
S31500002A50009B536961F300035361936A4FF0200CA6
S31500002A606CF30F239362936A4FF0C04043F08003E8
S31500002A7093620368009340F6FF714FF0C8420191DC
S31500002A8004E0019B013B0193019B13B1936A5B0632
S31500002A90F7D502B0704700BFF8B5484B1A684FF03B
S31500002AA0C84400256FF3861210211A602163A561C0
S31500002AB025626563C4F80458A36865F30403A3603C
S31500002AC06369FF2143F00103636121616369662243
S31500002AD043F00103636122616369992243F00103B4
S31500002AE063612261636901210B4363612320FFF760
S31500002AF0EBFD9F2323612269314BD2B21A70216903
S31500002B00C9B259702069C0B298706669EF2A46F05A
S31500002B100106666101D1402903D000221A809A700D
S31500002B20F8BD1728F9D10522226120696369352786
S31500002B3043F0010363612761224B216919706169C2
S31500002B4041F001016161A66A042161F30306A662F0
S31500002B50666861F30306666050262661666946F07C
S31500002B60010666611E7846F002061E70C0B2012696
S31500002B7026612061187820616069304360612161B7
S31500002B80616931436161216862F30201216022615A
S31500002B902269626932436261276122691A70636938
S31500002BA033436361236843F040032360FFF748FF24
S31500002BB0636965F300036361F8BD00BF00700440FC
S31500002BC09801FE1F9C01FE1F08B500F003F80020C7
S31500002BD008BD00BF70B582B06846FFF75DFDBDF861
S31500002BE00030DBB10E4A56680125C5F10105EDB28C
S31500002BF05BB10024019A336A32F8140029469847DB
S31500002C00BDF800300134A342F4D84FF47A714FF482
S31500002C10FA70FFF759FDBDF80030E6E7FEE700BFA2
S31500002C2038480000034678B10849094A09689142C4
S31500002C3008D1084AD2F89C21516802EB8102002093
S31500002C401A60704712207047012070472001FE1F4E
S31500002C50494D460000B07F4020B14FF0022303608B
S31500002C600020704701207047B0B10C4A0C4B126827
S31500002C709A420FD10B4BD3F89C315A6800F11001E0
S31500002C8003EB820353F8042F40F8042B8842F9D152
S31500002C900020704712207047012070472001FE1F58
S31500002CA0494D460000B07F4098B392B3F0B51D4C35
S31500002CB01D4B24689C4201D01220F0BD1B4B1C68A2
S31500002CC04CB31B4B05781B684FF0000C05E00CF16C
S31500002CD0010CA44503F108031DD093F806E0AE45A8
S31500002CE0F5D15E79B0F802E0BEEB960FEFD1DE7952
S31500002CF090F801E006F007077745E8D1B1EBD60F6B
S31500002D00E5D182F800C09B88C3F3090300205380F5
S31500002D10F0BD01207047DF21FF23117053800B2087
S31500002D20F0BD00BF2001FE1F494D46007801FE1F81
S31500002D30104800001E4B1A689AB103F57F710020F7
S31500002D4001E053F8042F8B421044FAD148B9194BCD
S31500002D50D3F89C311A0CB2F5807F05D000BE00BEB8
S31500002D60FCE700BE00BEFCE71A68013A033208D849
S31500002D70114A93F8241092F800C08C4504D000BE86
S31500002D80FDE700BE00BEFCE7517893F825C061451B
S31500002D90F5D1917893F826C06145F0D1D27893F8B1
S31500002DA027309A42EBD1054B054A1A60704700BF9F
S31500002DB0584C000000B07F407C4C00002001FE1FF4
S31500002DC0494D4600002861D000295FD0864A874BCE
S31500002DD012689A4201D0122070472DE9F041844DC5
S31500002DE00278AC6805EB8404A3789A4280F0C98027
S31500002DF0170904EB870E02F00F0CBEF8086026FADE
S31500002E000CF818F0010F00F0BC8012F0080F9EF8C5
S31500002E100AE008D004EB870702F0070CFA7A02F002
S31500002E200F02360A9644734A12F80CC0724A0CEA2C
S31500002E3006061B09925D023372449B0003EB4203B4
S31500002E40E218E35A92F90160C3F30903002E05EB79
S31500002E5083021DDB4678002E40F08F806668D478AA
S31500002E604088C4F303144C72D478C4F303048C7200
S31500002E7001248C80002833D135F823409378CB8009
S31500002E8006EB04260E600872C86078E001207047E1
S31500002E9015F8233044785B082CBB032B79D059D81E
S31500002EA073D0D4784088C4F303144C72D478C4F336
S31500002EB003048C7214798C80A04211D2D68895684E
S31500002EC0012B00FB06550D6000F08580022B73D0A8
S31500002ED0B2F80150CD8000230B72CB60002D56D185
S31500002EE040F27A504BE002254FF0010C4FF0040EF1
S31500002EF01678F60704F1FF343FD5052B72D8DFE8C4
S31500002F0003F003231914120A0C231A4413785B08DE
S31500002F10002CEDD1C1E79378DE1C15FB03C303EB50
S31500002F2096039B00F1E70823EFE793781EFB03C3A4
S31500002F309B00EAE71679937813FB06F3033303360F
S31500002F4003EB96039B00E0E71379033303F4FE7368
S31500002F500C33DAE7042B18D1D078547852680A601B
S31500002F60C0F303038B720023C0F303128B800B7232
S31500002F70CB60A3074A72CC8009D440F27950BDE8F1
S31500002F80F0814FF4AF60BDE8F0816420F7E70020E0
S31500002F90F5E7D07854780346C3F30303C0F3031070
S31500002FA0042548728B72002093788B802A440D7218
S31500002FB0CC800860CA60E2E7131803341D7B93785F
S31500002FC00B7200FB03F3033303EB940402EB84025E
S31500002FD0CD80CA6082E702440023157BCD800B7248
S31500002FE0CB607BE7002390E72001FE1F494D46009A
S31500002FF0584C0000384C0000B84B0000014B1868D4
S31500003000704700BF0000FE1F0A44914200F1FF33E3
S3150000301000D1704710B511F8014B03F8014F9142EA
S31500003020F9D110BD02440346934200D1704703F81C
S31500003030011BF9E738B5104B1D68AB6B0446B3B9F5
S31500003040182000F055F80246A86320B90B4B0C482F
S31500003050422100F01DF80B490B4BC0E900130B4B46
S3150000306083600B23838100210120C2E90401AB6B3D
S3150000307000221C615A6138BD0000FE1F5C50000032
S31500003080735000000E33CDAB34126DE6ECDE050056
S315000030901FB514461A46094B1B680546D8684CB13D
S315000030A0074B0091CDE9013406492B4600F00EF896
S315000030B000F0C4FC044B1C46F3E700BF0000FE1FF3
S315000030C0F1500000FE5000002C5100000EB403B574
S315000030D0014603AB054853F8042B0068019300F042
S315000030E019F902B05DF804EB03B070470000FE1F4B
S315000030F0024B0146186800F06FB800BF0000FE1FC3
S3150000310037B5002944D051F8043C0190002BA1F1B9
S315000031100404B8BFE41800F00BFF1E4A01981368B8
S3150000312033B96360146003B0BDE8304000F006BFF9
S31500003130A34208D9256861198B4201BF19685B68EB
S3150000314049192160EDE71A465B680BB1A342FAD92B
S3150000315011685518A5420BD1246821445418A3427E
S315000031601160E0D11C685B68536021441160DAE7A6
S3150000317002D90C230360D6E7256861198B4204BF88
S3150000318019685B68636004BF491921605460CAE727
S3150000319003B030BDA001FE1F70B50E4E0C4631685F
S315000031A0054611B900F07AFB30602146284600F04A
S315000031B075FB431C0AD0C41C24F00304A04207D0AC
S315000031C0211A284600F06AFB013001D14FF0FF3486
S315000031D0204670BDA401FE1F2DE9F041CD1C25F04F
S315000031E0030508350C2D38BF0C25002D074601DBDD
S315000031F0A94205D90C233B6000263046BDE8F08184
S315000032002E4E00F095FE33681C4634BB29463846E0
S31500003210FFF7C2FF431C04464DD134682646002EF4
S3150000322040D123683146384604EB030800F036FBEC
S3150000323080453AD1216803356D1A25F00305083516
S315000032400C2D38BF0C2529463846FFF7A5FF01305F
S315000032502BD023682B4423600EE02268521B1ED419
S315000032600B2A16D96119A342256018BF59606368F5
S3150000327008BF316062514B60384604F10B0600F01E
S315000032805DFE26F00706231DF21AB6D09B1BA3503F
S31500003290B3E76268A3420CBF32605A60ECE723468C
S315000032A06468B2E734467668B9E70C233B60384673
S315000032B000F044FEA1E72560DEE700BFA001FE1F87
S315000032C09368013B002B10B4936008DA9469A3421B
S315000032D001DB0A2903D15DF8044B00F0EFBA13684D
S315000032E0581C1060197008465DF8044B7047F8B515
S315000032F006460F461446D518AC4201D1002007E019
S3150000330014F8011B3A463046FFF7DAFF431CF3D1A7
S31500003310F8BDFFFF2DE9F04F0D469DB014469846C7
S31500003320064618B183690BB900F0AAFC894B9D4289
S315000033301BD175686B6ED90705D4AB899A0502D483
S31500003340A86D00F03BFDAB891B0701D52B69EBB9D6
S315000033502946304600F004FBC0B16B6EDC070ED583
S315000033604FF0FF301DB0BDE8F08F7B4B9D4201D181
S31500003370B568DFE7794B9D4208BFF568DAE7AB89A8
S315000033809805EDD4A86D00F01AFDE9E7002309932E
S3150000339020238DF82930CDF80C803023DFF8C0814A
S315000033A08DF82A304FF0010923469A4613F8012B6F
S315000033B00AB1252AF9D1BAEB040B0BD05B4622469B
S315000033C029463046FFF793FF013000F0AA80099A9C
S315000033D05A4409929AF80030002B00F0A28000238C
S315000033E04FF0FF32CDE905230AF1010A0493079352
S315000033F08DF853301A935446052214F8011B584889
S3150000340000F046FD049AD8B9D10644BF20238DF8B2
S315000034105330130744BF2B238DF853309AF80030EE
S315000034202A2B15D0079A544600204FF00A0C214645
S3150000343011F8013B303B092B4ED9B0B1079214E08D
S31500003440A0EB080309FA03F313430493A246D2E759
S31500003450039B191D1B680391002BBBBF5B4242F007
S31500003460020207930793B8BF049223782E2B0CD140
S3150000347063782A2B35D1039B1A1D1B680392002BF8
S31500003480B8BF4FF0FF3302340593DFF8E4A021788C
S315000034900322504600F0FCFC40B14023A0EB0A009A
S315000034A003FA00F0049B03430134049314F8011B50
S315000034B02C488DF82810062200F0EAFC00283FD0A0
S315000034C0294B1BBB039B073323F0070308330393E6
S315000034D0099B3B44099367E70CFB02320C4601202B
S315000034E0A5E700230134059319464FF00A0C204640
S315000034F010F8012B303A092A03D9002BC5D00591C3
S31500003500C3E70CFB012104460123F0E703AB00935C
S315000035102A46164B04A93046AFF300800746781CAE
S31500003520D6D16B6ED90705D4AB899A0502D4A86D9E
S3150000353000F045FCAB895B063FF512AF099811E731
S3150000354003AB00932A46094B04A9304600F080F8E5
S31500003550E4E700BF80510000A05100006051000068
S315000035602D5100003751000000000000EF3200002E
S31500003570335100002DE9F047164699468A680B69D3
S31500003580DDF820809342B8BF1346336091F843209C
S3150000359007460C460AB1013333602368990642BFD9
S315000035A0336802333360256815F0060506D104F149
S315000035B0190AE36832689B1AAB4226DC94F843206A
S315000035C0131E226818BF012392062BD404F143026E
S315000035D049463846C04701301ED02368E568326840
S315000035E003F00603042B08BFAD1AA36822690CBFBB
S315000035F025EAE57500259342C4BF9B1AED180026FF
S315000036001A34B5421AD1002008E001235246494631
S315000036103846C047013003D14FF0FF30BDE8F08790
S315000036200135C6E7E1185A1C302081F843002244D0
S3150000363094F8451082F843100233C7E70123224667
S3150000364049463846C0470130E6D00136D9E7FFFF84
S315000036502DE9FF470F7E0C9D782F914680460C463C
S315000036609A4601F1430207D8622F0AD8002F00F0CC
S31500003670D880582F00F0A38004F1420584F84270E8
S315000036803AE0A7F16303152BF6D801A151F823F010
S31500003690E9360000FD360000793600007936000074
S315000036A07936000079360000FD36000079360000D4
S315000036B079360000793600007936000009380000B6
S315000036C02D370000EB370000793600007936000010
S315000036D02B380000793600002D37000079360000BF
S315000036E079360000F33700002B681A1D1B682A6024
S315000036F004F1420584F842300123A3E020682968DA
S31500003700060601F104030AD50E682B60002E03DAC3
S315000037102D23764284F843305E480A2319E00E686A
S315000037202B6010F0400F18BF36B2EFE72B68206809
S31500003730191D2960010601D51E6802E04606FBD563
S315000037401E8854486F2F0CBF08230A23002184F8D3
S3150000375043106568A560002DA2BF216821F0040111
S3150000376021600EB9002D4DD01546B6FBF3F103FBD3
S315000037701167C75D05F8017D3746BB420E46F4D991
S31500003780082B0BD12368DE0708D5236961689942A7
S31500003790DEBF302305F8013C05F1FF35521B2261DF
S315000037A0CDF800A04B4603AA21464046FFF7E2FEAD
S315000037B001304CD14FF0FF3004B0BDE8F0873548FA
S315000037C081F845702968236851F8046B29601D0645
S315000037D014D5DF0744BF43F0200323601EB92368D6
S315000037E023F0200323601023B0E7236843F020036F
S315000037F023607823284884F84530E3E7590648BF14
S31500003800B6B2E6E71546BBE72B6826686169181D60
S31500003810286035061B6801D5196002E07006FBD5E5
S315000038201980002323611546BAE72B681A1D2A6002
S315000038301D6862680021284600F02AFB08B1401B7B
S31500003840606063682361002384F84330A8E7236936
S315000038502A4649464046D0470130ABD023689B07ED
S3150000386013D4E068039B9842B8BF1846A4E7012327
S31500003870324649464046D04701309BD00135E36881
S3150000388003995B1AAB42F2DCEBE7002504F119065B
S31500003890F5E700BF3E5100004F51000038B5064D18
S315000038A00023044608462B60FEF7F0FF431C02D1B6
S315000038B02B6803B1236038BDAC01FE1FF8B50E4678
S315000038C01446054618B183690BB900F0D9F9214BA6
S315000038D09C422BD16C68A369A360A3891A072FD5D4
S315000038E023696BB323692068C01A6369F6B2834201
S315000038F0374604DC2146284600F02EF930BBA36883
S31500003900013BA36023685A1C22601E706369013064
S31500003910834204D0A389DB0706D50A2E04D12146AB
S31500003920284600F019F988B93846F8BD0A4B9C427A
S3150000393001D1AC68CFE7094B9C4208BFEC68CAE7E7
S315000039402146284600F00CF80028CBD04FF0FF3770
S31500003950EAE700BF80510000A0510000605100005E
S31500003960324B70B51D6806460C4625B1AB6913B9D6
S31500003970284600F085F92E4B9C420FD16C68A3892E
S31500003980B4F90C2019072CD4DD0611D409233360B1
S3150000399042F04003A3814FF0FF303EE0254B9C42AE
S315000039A001D1AC68EBE7244B9C4208BFEC68E6E724
S315000039B0580712D5616B41B104F14403994202D014
S315000039C03046FFF79DFB00236363A38923F024039E
S315000039D0A3810023636023692360A38943F008035E
S315000039E0A38123694BB9A38903F42073B3F5007F40
S315000039F003D02146304600F009FAA089B4F90C201C
S31500003A0010F001030AD00023A36063695B42A3613F
S31500003A10236943B910F08000BAD170BD810758BF41
S31500003A206369A360F4E70020F7E700BF0000FE1F0C
S31500003A3080510000A05100006051000008B506202A
S31500003A4000F0AAFA012000F0B3FDFFFF8A892DE9F4
S31500003A50F041054610070C4658D44B68002B05DC90
S31500003A600B6C002B02DC0020BDE8F081E66A002E1C
S31500003A70F9D0002312F480522F682B6032D0606D8B
S31500003A80A3895A0705D56368C01A636B0BB1236C0B
S31500003A90C01A00230246E66A216A2846B047431C3C
S31500003AA0A38906D129681D292CD82A4ACA40D607D7
S31500003AB028D500226260D9042269226004D5421CFE
S31500003AC001D12B6803B96065616B2F600029CAD0EC
S31500003AD004F14403994202D02846FFF711FB002067
S31500003AE06063C1E7216A01232846B047411CC7D15C
S31500003AF02B68002BC4D01D2B01D0162B01D12F60B3
S31500003B00B1E7A38943F04003A381ADE70F69002F16
S31500003B10A9D093070E6808BF4B690F6018BF002332
S31500003B20A6EB07088B60B8F1000F9CDD216AA66A38
S31500003B3043463A462846B047002806DCA38943F0A8
S31500003B404003A3814FF0FF308EE70744A8EB00083F
S31500003B50E9E700BF0100402038B50B6905460C4671
S31500003B6013B90025284638BD18B183690BB900F092
S31500003B7087F8144B9C421BD16C68B4F90C30002BAF
S31500003B80EFD0626ED00704D4990502D4A06D00F080
S31500003B9015F928462146FFF759FF636EDA070546F1
S31500003BA0E0D4A3899B05DDD4A06D00F008F9D9E720
S31500003BB0054B9C4201D1AC68DFE7044B9C4208BF31
S31500003BC0EC68DAE780510000A05100006051000067
S31500003BD0002310B50446C0E90033C0E9043383600E
S31500003BE081814366C2818361194608225C30FFF7F2
S31500003BF019FA054B6362054BA362054BE362054B5D
S31500003C002462236310BD00BFD13F0000F33F0000D4
S31500003C102B4000004F400000014900F0AFB800BF44
S31500003C20593B000070B568224D1E55430E4605F1FE
S31500003C307401FFF7D1FA044640B10021C0E900162D
S31500003C400C30A06005F16802FFF7ECF9204670BD64
S31500003C50014800F0B3B800BFA901FE1F014800F0FB
S31500003C60AEB800BFA901FE1F014800F0A7B800BF0B
S31500003C70AA01FE1F014800F0A2B800BFAA01FE1F5C
S31500003C8010B50446FFF7F0FFA3691BB1BDE810406D
S31500003C90FFF7F0BFC4E912332365134B134A1B68C1
S31500003CA0A262A34204BF0123A361204600F020F8CC
S31500003CB06060204600F01CF8A060204600F018F86E
S31500003CC00022E06004216068FFF782FFA0680122FD
S31500003CD00921FFF77DFFE06802221221FFF778FF36
S31500003CE00123A361D2E700BF58500000193C000031
S31500003CF0F8B50746FFF7ACFF1E4B1E68B36913B94C
S31500003D003046FFF7BDFF4836D6E90134013B03D5FF
S31500003D1033680BB33668F7E7B4F90C50D5B9164BD0
S31500003D20E36004F15800656600F047F8FFF796FF78
S31500003D30C4E90155C4E904552560A5610822294650
S31500003D4004F15C00FFF76EF9C4E90D55C4E912559C
S31500003D502046F8BD6834D9E704213846FFF762FFEC
S31500003D60044630600028D5D1FFF778FF0C233B606E
S31500003D70EEE700BF585000000100FFFF2DE9F843B1
S31500003D800646884600F148040027D4E90195B9F1B2
S31500003D90010905D52468002CF7D13846BDE8F8831B
S31500003DA0AB89012B07D9B5F90E30013303D029466B
S31500003DB03046C04707436835E9E7704770477047A4
S31500003DC070B50E46B1F90E10002996B014461D4680
S31500003DD008DAB6F90C3000222A601A0610D44FF41D
S31500003DE080630EE06A4600F059F90028F1DB019A7B
S31500003DF002F47042A2F500535A425A412A60EEE795
S31500003E0040230020236016B070BDFFFF8B8973B579
S31500003E109D0706460C4607D504F147032360236138
S31500003E200123636102B070BD01AB6A46FFF7C8FFAC
S31500003E30009905463046FFF7CFF948B9B4F90C307A
S31500003E409A05EFD423F0030343F00203A381E3E7CB
S31500003E500D4BB362A389206043F08003A381009BCE
S31500003E606361019B20615BB1B4F90E10304600F02E
S31500003E7027F928B1A38923F0030343F00103A381A3
S31500003E80A0890543A581CDE7193C0000FFFFFFFF90
S31500003E9001F0FF01102A2BDB10F0070F08D010F8F5
S31500003EA0013B013A8B422DD010F0070F42B3F6D1F9
S31500003EB0F0B441EA012141EA014122F007047FF012
S31500003EC000070023F0E80256083C85EA010586EA69
S31500003ED0010685FA47F5A3FA87F586FA47F6A5FAA5
S31500003EE087F68EB9EED1F0BC01F0FF0102F00702B1
S31500003EF032B110F8013B013A83EA010313B1F8D15C
S31500003F000020704701387047002D06BF354603383C
S31500003F10073815F0010F07D1013015F4807F02BF75
S31500003F20013015F4C03F0130F0BC0138704700BFC6
S31500003F300148FFF743BF00BFA801FE1F0148FFF776
S31500003F403EBF00BFA801FE1F1F2938B504460D4617
S31500003F5004D9162303604FF0FF3038BD426C12B10E
S31500003F6052F821304BB9204600F030F82A46014677
S31500003F702046BDE8384000F017B8012B0AD0591C7E
S31500003F8003D1162303600120E7E7002442F8254009
S31500003F90284698470020E0E7024B01461868FFF7DD
S31500003FA0D3BF00BF0000FE1F38B5074D00230446EF
S31500003FB0084611462B6000F019FB431C02D12B6802
S31500003FC003B1236038BD00BFAC01FE1F00F0AAB9E3
S31500003FD010B50C46B1F90E1000F094F80028ABBFEE
S31500003FE0636DA3891B1823F48053ACBF6365A3815B
S31500003FF010BD2DE9F0411F468B89DB0505460C46B1
S31500004000164605D5B1F90E100223002200F068F815
S31500004010A389B4F90E1023F48053A38132463B469C
S315000040202846BDE8F04100F017B810B50C46B1F9C6
S315000040300E1000F055F8431CA38915BF606523F4E4
S31500004040805343F48053A38118BFA38110BDB1F9F7
S315000040500E1000F013B8FFFF38B5074D04460846AA
S31500004060114600222A601A4600F005F9431C02D1C7
S315000040702B6803B1236038BDAC01FE1F38B5064D71
S315000040800023044608462B6000F026F9431C02D1A3
S315000040902B6803B1236038BDAC01FE1F38B5074D50
S315000040A000230446084611462B6000F05EF9431CC7
S315000040B002D12B6803B1236038BD00BFAC01FE1FDF
S315000040C038B5064D0023044608462B6000F054FA26
S315000040D0431C02D12B6803B1236038BDAC01FE1F1F
S315000040E038B5074D04460846114600222A601A468E
S315000040F000F0AFF8431C02D12B6803B1236038BD32
S31500004100AC01FE1F38B5074D04460846114600228D
S315000041102A601A4600F045F8431C02D12B6803B109
S31500004120236038BDAC01FE1F0A4B10B50446186863
S3150000413018B183690BB9FFF7A3FD132C07D80648FE
S3150000414050F83420013202D000EBC40010BD00202C
S31500004150FCE700BF0000FE1FB001FE1FF8B50446D5
S31500004160FEF74CFF13260546002730463946ABBE00
S3150000417006462E602046F8BD431C01D1FFF7EEBF70
S31500004180704730B585B0CDE901010392062401AD33
S3150000419020462946ABBE04462046FFF7EDFF05B094
S315000041A030BD37B515460191FFF7BEFF01990446AC
S315000041B038B9FEF723FF092303604FF0FF3003B041
S315000041C030BD00682A46FFF7DCFF431CF7D0636862
S315000041D02A1A134463601046F1E7F7B50C461646F3
S315000041E0FFF7A2FF054640B9FEF708FF0923036063
S315000041F04FF0FF34204603B0F0BD022E03D9FEF780
S31500004200FDFE1623F3E7012E12D14368E418F6D417
S315000042102B680A26CDE900346F4630463946ABBED8
S3150000422006463046FFF7A8FF0028E1DB6C60E1E7B1
S31500004230022EEDD1036800930C266F4630463946B0
S31500004240ABBE06463046FFF797FF431CD0D004446A
S31500004250DEE7FFF7C2BF30B585B0CDE901010392B5
S31500004260052401AD20462946ABBE04462046FFF78D
S3150000427083FF05B030BD37B515460191FFF754FFF2
S315000042800199044630B9FEF7B9FE092303604FF0E1
S31500004290FF3012E000682A46FFF7DDFF0028F6DB54
S315000042A062682B1A1A44A842626005D1002003B046
S315000042B0BDE83040FFF752BF184603B030BD37B5F2
S315000042C00224019001AD20462946ABBE0446204695
S315000042D0FFF752FF03B030BD38B50546FFF724FFA0
S315000042E0044630B9FEF78AFE092303604FF0FF301B
S315000042F038BD013D012D09D8094B9A681B699A42C0
S3150000430004D14FF0FF3303600020F1E72068FFF788
S31500004310D6FF0028ECD14FF0FF332360E8E700BF5B
S31500004320B001FE1F0120704770B50C46FFF7FCFE7A
S31500004330054630B9FEF762FE092303604FF0FF30F1
S3150000434070BD636843F4005363604FF48063A364F5
S315000043500C2630462946ABBE05462846FFF70CFF1D
S31500004360431C1CBF20610020EAE70B4610B5002164
S31500004370044658221846FEF755FE01462046BDE87B
S315000043801040FFF7D1BF38B50D460446582200212C
S315000043902846FEF747FE2046002100F011F8431C90
S315000043A004460BD06B6843F401436B602946FFF764
S315000043B0BBFF05462046FFF78FFF2C46204638BD3B
S315000043C02DE9F043DFF8A88097B007460E46002592
S315000043D058F83540611C37D00135142DF8D1FEF759
S315000043E00DFE182303604FF0FF343DE0C6F3004492
S315000043F040F20163B20748BF44F002041E4218BFF0
S3150000440044F00404330748BF24F00404384648BF88
S3150000441044F00804009700F0F5F8CDE901400124C6
S3150000442020464946ABBE0446002C08DB48F835401A
S3150000443008EBC5080023C8F804302C4614E02046D3
S31500004440FFF78CFE04460FE006F42063B3F5206FF9
S31500004450E946CBD149463846FFF795FF0130C5D02E
S31500004460FEF7CCFD11230360204617B0BDE8F083AC
S31500004470B001FE1F2DE9F74306460F462A480021E4
S315000044801546FFF79DFF2A46044600213046FEF7F3
S31500004490C9FD631C16D02046FFF746FE4FF00C09F7
S315000044A0804648464146ABBE80464046FFF764FE1E
S315000044B0032802DDC31EAB4208DC2046FFF70CFFD3
S315000044C04FF0FF34204603B0BDE8F08304220DEB25
S315000044D002012046FFF765FE0328EEDD9DF8043055
S315000044E0532BEAD19DF80530482BE6D19DF80630CE
S315000044F0462BE2D19DF80730422BDED10122394608
S315000045002046FFF76AFE0028D7DB2A4631462046BA
S31500004510FFF747FE05462046FFF7DEFE2846FFF773
S315000045202BFE0446CEE700BFC051000037B50A4D4A
S315000045300A4C0021012201A829602260FFF79AFF98
S31500004540002807DD9DF8043003F0010203F00203A2
S315000045502A60236003B030BD6400FE1F6800FE1FA2
S3150000456010B5044C2368002B01DAFFF7DFFF206843
S3150000457010BD00BF6400FE1F70B5FFF7D5FD09250D
S31500004580044620B9FEF73AFD0560204670BD284670
S315000045902146ABBE0446012CF7D0FEF72FFD0024C2
S315000045A00546132630462146ABBE06462E60ECE78E
S315000045B0014608B5024A4FF0FF3000F003F800BF8D
S315000045C02600020007B5CDE90021FFF7C9FF002844
S315000045D014BF20241824FFF7C3FF20B16D462046E0
S315000045E02946ABBE0446009DF9E7FFFF062908B53C
S315000045F00CBF024A024AFFF7E5FF00BF2300020094
S3150000460026000200034613F8012B002AFBD1181AD4
S31500004610013870474275696C742077697468205256
S31500004620656E657361732053796E657267792028AC
S31500004630544D2920536F667477617265205061630B
S315000046406B6167652076657273696F6E20322E33F3
S315000046502E302B6275696C642E33393564363138E9
S3150000466063396135383238646235663431356433DE
S315000046703736386464353237366239663839343716
S3150000468034000000322E332E3000000000000302FA
S31500004690F8B500BFF8BC08BC9E467047F8B500BF29
S315000046A0F8BC08BC9E467047D50A0000010A000007
S315000046B0AD0C0000E1080000990B0000F50B0000AE
S315000046C0B1090000490B0000590C00006507000005
S315000046D0B5070000E9070000F10600002507000005
S315000046E025080000D50D0000510E0000750D0000D4
S315000046F0890D00009D0D0000B10D0000C50D0000E4
S315000047007914000031200000F91E0000FD1500009C
S315000047103919000015130000710F00005D17000025
S3150000472071130000A11200002110000049100000C2
S3150000473071100000E911000099100000C11000007E
S31500004740810E0000850E0000111300000513000005
S31500004750091300000D130000E910000011110000FC
S315000047603911000061110000890E000000000100EF
S3150000477000000200010002000400FFFF000001002B
S315000047800200FFFF010002000300FFFF40420F008E
S315000047900000000040420F0000000000040000007E
S315000047A002000000002D310100366E0130040201C6
S315000047B0020A1E00D0FE0100FFFFFFFFFFFFFF36CB
S315000047C036FFFF8EFFFFFFFFFF808D815F4953831A
S315000047D09FFFFFFFFFFFFFFFD0F4D6FFDCFFFFFFC9
S315000047E0FFFFFFE5EEFFFFC34245466B8C8988FF5E
S315000047F0FFFFFFFFFFFFFFFF4F6D82848685FFFFF0
S315000048001CE001400070044004700440087004403D
S3150000481000050000010002000800FFFF0100000083
S315000048200000000000000000030000003048000007
S31500004830000601060206FFFF00000000A846000071
S315000048406E000000484800000080000000000000E4
S31500004850008000000100000000800000020000004F
S3150000486000400000040000000040000005000000B9
S315000048700040000006000000008000000800000064
S315000048800080000009000000004000000A0000004F
S31500004890008000000E000000008000000F000000F5
S315000048A000040106000100000004010601010000E9
S315000048B000040106020100000004010603010000D5
S315000048C000040104040100000004010405010000C5
S315000048D0000C0104060100000404000007010000AA
S315000048E000000100080100000000010009010000AD
S315000048F0000001000A010000004000000B0100005A
S31500004900000000000C010000040400000D0100007E
S31500004910000C010402020000000000000302000077
S315000049200000010C040200000000010C050200005A
S315000049300000010C060200000000010C0702000046
S315000049400000010000030000000401040103000050
S31500004950000401040203000000000000030300003D
S315000049600004010404030000000401040503000020
S31500004970000C010406030000040400000703000005
S315000049800000000008030000040400000903000002
S31500004990000000000A030000000000000B030000F6
S315000049A0000000000C030000000401190D030000C4
S315000049B0000401190E030000000401190F03000092
S315000049C00040000000040000000001100104000087
S315000049D00000011002040000000401170304000097
S315000049E00004011704040000000C01170504000070
S315000049F0000C011706040000000001130704000064
S31500004A000000010C080400000000010C090400006D
S31500004A10000401040A040000000401040B04000061
S31500004A20000C01040C040000040400000D04000046
S31500004A300000010C0E0400000000010C0F04000031
S31500004A40000C011100050000000C01110105000019
S31500004A50000C011102050000000C01110305000005
S31500004A60000C011104050000000C011105050000F1
S31500004A700000000006050000000000000705000019
S31500004A800404000000060000040400000106000003
S31500004A9004040000020600000000000003060000F7
S31500004AA000000000040600000000000005060000EB
S31500004AB0000401190606000000040119070600009B
S31500004AC00000000008060000000000000D060000BF
S31500004AD0000000000E060000000401190F06000089
S31500004AE0000C011700070000000C01170107000069
S31500004AF0000C011702070000000C01170307000055
S31500004B00000C011704070000000C01170507000040
S31500004B100004010506070000000401050707000060
S31500004B20040400000008000004040000010800005E
S31500004B30000401190208000000040119030800001E
S31500004B40000401190408000004040000060800001F
S31500004B50000C0119000900000004011901090000F8
S31500004B6000040119050900000004011906090000E6
S31500004B7000040119070900000004011908090000D2
S31500004B8000040119000A000000040119010A0000CE
S31500004B9000040119080A000000040119090A0000AE
S31500004BA0000401190A0A000000000114000B0000AD
S31500004BB000000114010B00000001010201020203C2
S31500004BC001020203020303040102020302030304B7
S31500004BD0020303040304040501020203020303049F
S31500004BE00203030403040405020303040304040587
S31500004BF00304040504050506010202030203030477
S31500004C000203030403040405020303040304040566
S31500004C10030404050405050602030304030404054E
S31500004C200304040504050506030404050405050636
S31500004C300405050605060607000103070F1F3F7F4B
S31500004C40352D0000252C0000692C0000C52D000024
S31500004C50A92C0000592C00000200031004000000DB
S31500004C601C00000013000000030E0010FFFFFFFFF2
S31500004C70FFFFFFFFFFFFFFFFFFFFFFFF5237465318
S31500004C80374732374833413031434643575331343F
S31500004C9034314131303000000000000002B06400C1
S31500004CA0F000000001000810F3E0BFB605793349B3
S31500004CB08B43F24F1693A05D1E7A1DD8700D7A8233
S31500004CC042786A5EC35C0B19040050110000004074
S31500004CD0FFFF0008FFC110081FFF1B057F00280704
S31500004CE03F002F063E8047804C806A0064806B0040
S31500004CF0820056806E00BD80B08083006F005B80AE
S31500004D007000720071007300740075008A808680DE
S31500004D108D80CF8076006C006D00B5807B007A00B8
S31500004D207C00A08077007800790090809A80978038
S31500004D3084009D80A3807D00D580D880A6808500D4
S31500004D40AD80A980DE807E007F00800081000000AB
S31500004D500607021000000000FFFF00000020000010
S31500004D600001000000000100FFFF3F00008000007E
S31500004D70000100000607011000001040FFFF104070
S31500004D8040000000040000000A000410070B0B0F8F
S31500004D900000FE1FFFFFFF1F00000020FFFF032093
S31500004DA000000420FFFF072000E00F20FFFF0F2078
S31500004DB001070010080040000050004008030110E1
S31500004DC000520040015F00100100000C000000408E
S31500004DD0011F001001000001000C0040000300103C
S31500004DE001000001000D0040010700100100000154
S31500004DF000E07F40000300100100100000C07F406B
S31500004E00E0010310B0010310C001031020000310DD
S31500004E105400031030000F10700403100008071030
S31500004E201000031046040310410503104007031049
S31500004E30000C03104004071042040310440403103E
S31500004E40D0050310E0050B10F00503100F0707103F
S31500004E5040090310000E0711400E0310600E0310E8
S31500004E606000071010040310B00707108004031039
S31500004E700200001003000001003005400703030094
S31500004E80000F00100A00200000000740000F00106D
S31500004E900200000100200740020000100E00000181
S31500004EA0008007403F1F1F1F0F0F0F0F0707070741
S31500004EB0070700000003001001001000F08F0740F4
S31500004EC0000300100400000100200440000300104D
S31500004ED00200000100400840000700100600000123
S31500004EE000500840000700100200001000000540B6
S31500004EF00007001002000004002006400200001017
S31500004F0002000002004006400707000000070011EB
S31500004F100200000100E0044001030010C00004008C
S31500004F200008044008030110000D044004000210AC
S31500004F300200000200C005402B2B00007F007F000E
S31500004F403F000F007F006F001F000F0004000110DC
S31500004F500C00200000000440070B0B0B0B0303039F
S31500004F6003030303FFCFFFC7FFFFFFFFFF30FF3041
S31500004F70FFFFFFFFFFFFFFFFFFFFFF38FFFFFFFF02
S31500004F80FFFFFF00FF3F7F00FFFFE301FFFF030777
S31500004F90FF0003000400021001002000001008407A
S31500004FA003000000FFFFFF0F0300000000030010D6
S31500004FB0010000020000006401170010010000104B
S31500004FC000000940001F002001000002000006400A
S31500004FD00103001001000001004406400103001017
S31500004FE00100000100450640010300100100000811
S31500004FF0005006400003001002000004005806405E
S31500005000FFFFFFFFFFFFFFFFFFFFFFFFFFFFFFFFAA
S31500005010FFFFFFFFFFFFFFFFFFFFFFFFFFFFFFFF9A
S31500005020FFFFFFFFFFFFFFFFFFFFFFFFFFFFFFFF8A
S31500005030FFFFFFFFFFFFFFFFFFFFFFFFFFFFFFFF7A
S31500005040FFFFFFFFFFFFFFFFFFFFFFFFFFFFFFFF6A
S31500005050FFFFFFFF725ABC9E0400FE1F5245454EDD
S3150000506054206D616C6C6F63207375636365656452
S315000050706564002F6D6E742F776F726B737061634A
S31500005080652F776F726B73706163652F4743432D8E
S3150000509031302D706970656C696E652F6A656E6B4F
S315000050A0696E732D4743432D31302D706970656CE1
S315000050B0696E652D3333385F3230323131303138F5
S315000050C05F313633343531363230332F7372632FD6
S315000050D06E65776C69622F6E65776C69622F6C6995
S315000050E062632F7374646C69622F72616E642E63DF
S315000050F0002C2066756E6374696F6E3A20006173CA
S3150000510073657274696F6E20222573222066616949
S315000051106C65643A2066696C6520222573222C2012
S315000051206C696E65202564257325730A00232D306E
S315000051302B2000686C4C0065666745464700303199
S3150000514032333435363738394142434445460030E8
S315000051503132333435363738396162636465660017
S315000051600000000000000000000000000000000039
S315000051700000000000000000000000000000000029
S315000051800000000000000000000000000000000019
S315000051900000000000000000000000000000000009
S315000051A000000000000000000000000000000000F9
S315000051B000000000000000000000000000000000E9
S315000051C03A73656D69686F7374696E672D6665619C
S311000051D0747572657300FFFF000000009C
S315000051DC0400FE1F0000000080510000A0510000DA
S315000051EC60510000000000000000000000000000FC
S315000051FC000000000000000000000000000000009D
S3150000520C000000000000000000000000000000008C
S3150000521C000000000000000000000000000000007C
S3150000522C000000000000000000000000000000006C
S3150000523C00000000FFFFFFFFFFFFFFFFD506000089
S3150000524CB106000000000000000000000000000095
S3150000525C000000000000000000000000000000003C
S3150000526C000000000000000000000000000000002C
S3150000527C000000000000000000000000000000001C
S3150000528C000000000000000000000000000000000C
S3150000529C00000000000000000000000000000000FC
S315000052AC00000000000000000000000000000000EC
S31540120050FFFFFFFFFFFFFFFFFFFFFFFFFFFFFFFF58
S705000028CD05
